:08000000803102288731FD2F39
:100F440021008C0122008C0122000C156430F00079
:100F54000030F1008731BC278731FB30F900790874
:100F640022008C056430F0000030F1008731BC278A
:100F74008731A62FF501F6017608803AF200710850
:100F8400803A7202031DC82F700875020318080006
:100F9400F701F8010030840088308500003FF2003A
:100FA400013FF3007808803AF4007308803A740231
:100FB400031DDE2F720877020318F82F0130F7079C
:100FC4000030F83D0030840088308500003FF20096
:100FD400013FF3007808803AF4007308803A740201
:100FE400031DF62F72087702031CE02F0130F5076A
:100FF4000030F63DBE2F20008731A22F1434003478
:00000001FF
